{
  "_format": "hh-sol-artifact-1",
  "contractName": "Dappazon",
  "sourceName": "contracts/Dappazon.sol",
  "abi": [
    {
      "inputs": [],
      "stateMutability": "nonpayable",
      "type": "constructor"
    },
    {
      "anonymous": false,
      "inputs": [
        {
          "indexed": true,
          "internalType": "address",
          "name": "buyer",
          "type": "address"
        },
        {
          "indexed": true,
          "internalType": "uint256",
          "name": "orderId",
          "type": "uint256"
        },
        {
          "indexed": false,
          "internalType": "uint256",
          "name": "itemId",
          "type": "uint256"
        }
      ],
      "name": "Buy",
      "type": "event"
    },
    {
      "anonymous": false,
      "inputs": [
        {
          "indexed": true,
          "internalType": "string",
          "name": "name",
          "type": "string"
        },
        {
          "indexed": false,
          "internalType": "uint256",
          "name": "cost",
          "type": "uint256"
        },
        {
          "indexed": false,
          "internalType": "uint256",
          "name": "quantity",
          "type": "uint256"
        }
      ],
      "name": "List",
      "type": "event"
    },
    {
      "inputs": [
        {
          "internalType": "uint256",
          "name": "_id",
          "type": "uint256"
        }
      ],
      "name": "buy",
      "outputs": [],
      "stateMutability": "payable",
      "type": "function"
    },
    {
      "inputs": [],
      "name": "getOwner",
      "outputs": [
        {
          "internalType": "address",
          "name": "",
          "type": "address"
        }
      ],
      "stateMutability": "view",
      "type": "function"
    },
    {
      "inputs": [
        {
          "internalType": "uint256",
          "name": "",
          "type": "uint256"
        }
      ],
      "name": "items",
      "outputs": [
        {
          "internalType": "uint256",
          "name": "id",
          "type": "uint256"
        },
        {
          "internalType": "string",
          "name": "name",
          "type": "string"
        },
        {
          "internalType": "string",
          "name": "category",
          "type": "string"
        },
        {
          "internalType": "string",
          "name": "image",
          "type": "string"
        },
        {
          "internalType": "uint256",
          "name": "cost",
          "type": "uint256"
        },
        {
          "internalType": "uint256",
          "name": "rating",
          "type": "uint256"
        },
        {
          "internalType": "uint256",
          "name": "stock",
          "type": "uint256"
        }
      ],
      "stateMutability": "view",
      "type": "function"
    },
    {
      "inputs": [
        {
          "internalType": "uint256",
          "name": "_id",
          "type": "uint256"
        },
        {
          "internalType": "string",
          "name": "_name",
          "type": "string"
        },
        {
          "internalType": "string",
          "name": "_category",
          "type": "string"
        },
        {
          "internalType": "string",
          "name": "_image",
          "type": "string"
        },
        {
          "internalType": "uint256",
          "name": "_cost",
          "type": "uint256"
        },
        {
          "internalType": "uint256",
          "name": "_rating",
          "type": "uint256"
        },
        {
          "internalType": "uint256",
          "name": "_stock",
          "type": "uint256"
        }
      ],
      "name": "list",
      "outputs": [],
      "stateMutability": "nonpayable",
      "type": "function"
    },
    {
      "inputs": [],
      "name": "name",
      "outputs": [
        {
          "internalType": "string",
          "name": "",
          "type": "string"
        }
      ],
      "stateMutability": "view",
      "type": "function"
    },
    {
      "inputs": [
        {
          "internalType": "address",
          "name": "",
          "type": "address"
        }
      ],
      "name": "orderCount",
      "outputs": [
        {
          "internalType": "uint256",
          "name": "",
          "type": "uint256"
        }
      ],
      "stateMutability": "view",
      "type": "function"
    },
    {
      "inputs": [
        {
          "internalType": "address",
          "name": "",
          "type": "address"
        },
        {
          "internalType": "uint256",
          "name": "",
          "type": "uint256"
        }
      ],
      "name": "orders",
      "outputs": [
        {
          "internalType": "uint256",
          "name": "time",
          "type": "uint256"
        },
        {
          "components": [
            {
              "internalType": "uint256",
              "name": "id",
              "type": "uint256"
            },
            {
              "internalType": "string",
              "name": "name",
              "type": "string"
            },
            {
              "internalType": "string",
              "name": "category",
              "type": "string"
            },
            {
              "internalType": "string",
              "name": "image",
              "type": "string"
            },
            {
              "internalType": "uint256",
              "name": "cost",
              "type": "uint256"
            },
            {
              "internalType": "uint256",
              "name": "rating",
              "type": "uint256"
            },
            {
              "internalType": "uint256",
              "name": "stock",
              "type": "uint256"
            }
          ],
          "internalType": "struct Dappazon.Item",
          "name": "item",
          "type": "tuple"
        }
      ],
      "stateMutability": "view",
      "type": "function"
    },
    {
      "inputs": [],
      "name": "withdraw",
      "outputs": [],
      "stateMutability": "payable",
      "type": "function"
    }
  ],
  "bytecode": "0x60a06040523480156200001157600080fd5b506040518060400160405280600881526020017f44617070617a6f6e000000000000000000000000000000000000000000000000815250600090805190602001906200005f9291906200009a565b503373ffffffffffffffffffffffffffffffffffffffff1660808173ffffffffffffffffffffffffffffffffffffffff1681525050620001af565b828054620000a89062000179565b90600052602060002090601f016020900481019282620000cc576000855562000118565b82601f10620000e757805160ff191683800117855562000118565b8280016001018555821562000118579182015b8281111562000117578251825591602001919060010190620000fa565b5b5090506200012791906200012b565b5090565b5b80821115620001465760008160009055506001016200012c565b5090565b7f4e487b7100000000000000000000000000000000000000000000000000000000600052602260045260246000fd5b600060028204905060018216806200019257607f821691505b60208210811415620001a957620001a86200014a565b5b50919050565b6080516118d4620001e06000396000818161027301528181610303015281816105cd0152610cdd01526118d46000f3fe60806040526004361061007b5760003560e01c8063893d20e81161004e578063893d20e814610130578063bfb231d21461015b578063d96a094a1461019e578063eea8a7e8146101ba5761007b565b806306fdde03146100805780633ccfd60b146100ab578063713d856b146100b5578063793b8c6d146100f2575b600080fd5b34801561008c57600080fd5b506100956101e3565b6040516100a29190610fcb565b60405180910390f35b6100b3610271565b005b3480156100c157600080fd5b506100dc60048036038101906100d7919061105f565b610398565b6040516100e991906110a5565b60405180910390f35b3480156100fe57600080fd5b50610119600480360381019061011491906110ec565b6103b0565b60405161012792919061122f565b60405180910390f35b34801561013c57600080fd5b506101456105c9565b604051610152919061126e565b60405180910390f35b34801561016757600080fd5b50610182600480360381019061017d9190611289565b6105f1565b60405161019597969594939291906112b6565b60405180910390f35b6101b860048036038101906101b39190611289565b6107cb565b005b3480156101c657600080fd5b506101e160048036038101906101dc919061146f565b610cdb565b005b600080546101f090611594565b80601f016020809104026020016040519081016040528092919081815260200182805461021c90611594565b80156102695780601f1061023e57610100808354040283529160200191610269565b820191906000526020600020905b81548152906001019060200180831161024c57829003601f168201915b505050505081565b7f000000000000000000000000000000000000000000000000000000000000000073ffffffffffffffffffffffffffffffffffffffff163373ffffffffffffffffffffffffffffffffffffffff16146102ff576040517f08c379a00000000000000000000000000000000000000000000000000000000081526004016102f690611612565b60405180910390fd5b60007f000000000000000000000000000000000000000000000000000000000000000073ffffffffffffffffffffffffffffffffffffffff164760405161034590611663565b60006040518083038185875af1925050503d8060008114610382576040519150601f19603f3d011682016040523d82523d6000602084013e610387565b606091505b505090508061039557600080fd5b50565b60026020528060005260406000206000915090505481565b600360205281600052604060002060205280600052604060002060009150915050806000015490806001016040518060e00160405290816000820154815260200160018201805461040090611594565b80601f016020809104026020016040519081016040528092919081815260200182805461042c90611594565b80156104795780601f1061044e57610100808354040283529160200191610479565b820191906000526020600020905b81548152906001019060200180831161045c57829003601f168201915b5050505050815260200160028201805461049290611594565b80601f01602080910402602001604051908101604052809291908181526020018280546104be90611594565b801561050b5780601f106104e05761010080835404028352916020019161050b565b820191906000526020600020905b8154815290600101906020018083116104ee57829003601f168201915b5050505050815260200160038201805461052490611594565b80601f016020809104026020016040519081016040528092919081815260200182805461055090611594565b801561059d5780601f106105725761010080835404028352916020019161059d565b820191906000526020600020905b81548152906001019060200180831161058057829003601f168201915b505050505081526020016004820154815260200160058201548152602001600682015481525050905082565b60007f0000000000000000000000000000000000000000000000000000000000000000905090565b600160205280600052604060002060009150905080600001549080600101805461061a90611594565b80601f016020809104026020016040519081016040528092919081815260200182805461064690611594565b80156106935780601f1061066857610100808354040283529160200191610693565b820191906000526020600020905b81548152906001019060200180831161067657829003601f168201915b5050505050908060020180546106a890611594565b80601f01602080910402602001604051908101604052809291908181526020018280546106d490611594565b80156107215780601f106106f657610100808354040283529160200191610721565b820191906000526020600020905b81548152906001019060200180831161070457829003601f168201915b50505050509080600301805461073690611594565b80601f016020809104026020016040519081016040528092919081815260200182805461076290611594565b80156107af5780601f10610784576101008083540402835291602001916107af565b820191906000526020600020905b81548152906001019060200180831161079257829003601f168201915b5050505050908060040154908060050154908060060154905087565b6001600082815260200190815260200160002060040154341015610824576040517f08c379a000000000000000000000000000000000000000000000000000000000815260040161081b906116ea565b60405180910390fd5b600060016000838152602001908152602001600020600601541161087d576040517f08c379a000000000000000000000000000000000000000000000000000000000815260040161087490611756565b60405180910390fd5b60006040518060400160405280428152602001600160008581526020019081526020016000206040518060e0016040529081600082015481526020016001820180546108c890611594565b80601f01602080910402602001604051908101604052809291908181526020018280546108f490611594565b80156109415780601f1061091657610100808354040283529160200191610941565b820191906000526020600020905b81548152906001019060200180831161092457829003601f168201915b5050505050815260200160028201805461095a90611594565b80601f016020809104026020016040519081016040528092919081815260200182805461098690611594565b80156109d35780601f106109a8576101008083540402835291602001916109d3565b820191906000526020600020905b8154815290600101906020018083116109b657829003601f168201915b505050505081526020016003820180546109ec90611594565b80601f0160208091040260200160405190810160405280929190818152602001828054610a1890611594565b8015610a655780601f10610a3a57610100808354040283529160200191610a65565b820191906000526020600020905b815481529060010190602001808311610a4857829003601f168201915b5050505050815260200160048201548152602001600582015481526020016006820154815250508152509050600260003373ffffffffffffffffffffffffffffffffffffffff1673ffffffffffffffffffffffffffffffffffffffff1681526020019081526020016000206000815480929190610ae1906117a5565b919050555080600360003373ffffffffffffffffffffffffffffffffffffffff1673ffffffffffffffffffffffffffffffffffffffff1681526020019081526020016000206000600260003373ffffffffffffffffffffffffffffffffffffffff1673ffffffffffffffffffffffffffffffffffffffff16815260200190815260200160002054815260200190815260200160002060008201518160000155602082015181600101600082015181600001556020820151816001019080519060200190610baf929190610e8f565b506040820151816002019080519060200190610bcc929190610e8f565b506060820151816003019080519060200190610be9929190610e8f565b506080820151816004015560a0820151816005015560c082015181600601555050905050600180600084815260200190815260200160002060060154610c2f91906117ee565b6001600084815260200190815260200160002060060181905550600260003373ffffffffffffffffffffffffffffffffffffffff1673ffffffffffffffffffffffffffffffffffffffff168152602001908152602001600020543373ffffffffffffffffffffffffffffffffffffffff167f1cbc5ab135991bd2b6a4b034a04aa2aa086dac1371cb9b16b8b5e2ed6b036bed84604051610ccf91906110a5565b60405180910390a35050565b7f000000000000000000000000000000000000000000000000000000000000000073ffffffffffffffffffffffffffffffffffffffff163373ffffffffffffffffffffffffffffffffffffffff1614610d69576040517f08c379a0000000000000000000000000000000000000000000000000000000008152600401610d6090611612565b60405180910390fd5b60006040518060e0016040528089815260200188815260200187815260200186815260200185815260200184815260200183815250905080600160008a8152602001908152602001600020600082015181600001556020820151816001019080519060200190610dda929190610e8f565b506040820151816002019080519060200190610df7929190610e8f565b506060820151816003019080519060200190610e14929190610e8f565b506080820151816004015560a0820151816005015560c0820151816006015590505086604051610e44919061185e565b60405180910390207ffdbe2a012c10ec01592653978eaa09b5ca60b143a0e617505b2ebcbd911ec5b88584604051610e7d929190611875565b60405180910390a25050505050505050565b828054610e9b90611594565b90600052602060002090601f016020900481019282610ebd5760008555610f04565b82601f10610ed657805160ff1916838001178555610f04565b82800160010185558215610f04579182015b82811115610f03578251825591602001919060010190610ee8565b5b509050610f119190610f15565b5090565b5b80821115610f2e576000816000905550600101610f16565b5090565b600081519050919050565b600082825260208201905092915050565b60005b83811015610f6c578082015181840152602081019050610f51565b83811115610f7b576000848401525b50505050565b6000601f19601f8301169050919050565b6000610f9d82610f32565b610fa78185610f3d565b9350610fb7818560208601610f4e565b610fc081610f81565b840191505092915050565b60006020820190508181036000830152610fe58184610f92565b905092915050565b6000604051905090565b600080fd5b600080fd5b600073ffffffffffffffffffffffffffffffffffffffff82169050919050565b600061102c82611001565b9050919050565b61103c81611021565b811461104757600080fd5b50565b60008135905061105981611033565b92915050565b60006020828403121561107557611074610ff7565b5b60006110838482850161104a565b91505092915050565b6000819050919050565b61109f8161108c565b82525050565b60006020820190506110ba6000830184611096565b92915050565b6110c98161108c565b81146110d457600080fd5b50565b6000813590506110e6816110c0565b92915050565b6000806040838503121561110357611102610ff7565b5b60006111118582860161104a565b9250506020611122858286016110d7565b9150509250929050565b6111358161108c565b82525050565b600082825260208201905092915050565b600061115782610f32565b611161818561113b565b9350611171818560208601610f4e565b61117a81610f81565b840191505092915050565b600060e08301600083015161119d600086018261112c565b50602083015184820360208601526111b5828261114c565b915050604083015184820360408601526111cf828261114c565b915050606083015184820360608601526111e9828261114c565b91505060808301516111fe608086018261112c565b5060a083015161121160a086018261112c565b5060c083015161122460c086018261112c565b508091505092915050565b60006040820190506112446000830185611096565b81810360208301526112568184611185565b90509392505050565b61126881611021565b82525050565b6000602082019050611283600083018461125f565b92915050565b60006020828403121561129f5761129e610ff7565b5b60006112ad848285016110d7565b91505092915050565b600060e0820190506112cb600083018a611096565b81810360208301526112dd8189610f92565b905081810360408301526112f18188610f92565b905081810360608301526113058187610f92565b90506113146080830186611096565b61132160a0830185611096565b61132e60c0830184611096565b98975050505050505050565b600080fd5b600080fd5b7f4e487b7100000000000000000000000000000000000000000000000000000000600052604160045260246000fd5b61137c82610f81565b810181811067ffffffffffffffff8211171561139b5761139a611344565b5b80604052505050565b60006113ae610fed565b90506113ba8282611373565b919050565b600067ffffffffffffffff8211156113da576113d9611344565b5b6113e382610f81565b9050602081019050919050565b82818337600083830152505050565b600061141261140d846113bf565b6113a4565b90508281526020810184848401111561142e5761142d61133f565b5b6114398482856113f0565b509392505050565b600082601f8301126114565761145561133a565b5b81356114668482602086016113ff565b91505092915050565b600080600080600080600060e0888a03121561148e5761148d610ff7565b5b600061149c8a828b016110d7565b975050602088013567ffffffffffffffff8111156114bd576114bc610ffc565b5b6114c98a828b01611441565b965050604088013567ffffffffffffffff8111156114ea576114e9610ffc565b5b6114f68a828b01611441565b955050606088013567ffffffffffffffff81111561151757611516610ffc565b5b6115238a828b01611441565b94505060806115348a828b016110d7565b93505060a06115458a828b016110d7565b92505060c06115568a828b016110d7565b91505092959891949750929550565b7f4e487b7100000000000000000000000000000000000000000000000000000000600052602260045260246000fd5b600060028204905060018216806115ac57607f821691505b602082108114156115c0576115bf611565565b5b50919050565b7f596f7520617265206e6f7420746865206f776e65720000000000000000000000600082015250565b60006115fc601583610f3d565b9150611607826115c6565b602082019050919050565b6000602082019050818103600083015261162b816115ef565b9050919050565b600081905092915050565b50565b600061164d600083611632565b91506116588261163d565b600082019050919050565b600061166e82611640565b9150819050919050565b7f596f75206e65656420746f207370656e64206d6f72652045544820746f20627560008201527f7900000000000000000000000000000000000000000000000000000000000000602082015250565b60006116d4602183610f3d565b91506116df82611678565b604082019050919050565b60006020820190508181036000830152611703816116c7565b9050919050565b7f4974656d206f7574206f662073746f636b000000000000000000000000000000600082015250565b6000611740601183610f3d565b915061174b8261170a565b602082019050919050565b6000602082019050818103600083015261176f81611733565b9050919050565b7f4e487b7100000000000000000000000000000000000000000000000000000000600052601160045260246000fd5b60006117b08261108c565b91507fffffffffffffffffffffffffffffffffffffffffffffffffffffffffffffffff8214156117e3576117e2611776565b5b600182019050919050565b60006117f98261108c565b91506118048361108c565b92508282101561181757611816611776565b5b828203905092915050565b600081905092915050565b600061183882610f32565b6118428185611822565b9350611852818560208601610f4e565b80840191505092915050565b600061186a828461182d565b915081905092915050565b600060408201905061188a6000830185611096565b6118976020830184611096565b939250505056fea2646970667358221220db65870a5cfcd68ed22c95fc734112bf1403b9d04253100801e4b2bbabba302f64736f6c63430008090033",
  "linkReferences": {},
  "deployedLinkReferences": {}
}